{
  "_format": "hh-sol-artifact-1",
  "contractName": "WavePortal",
  "sourceName": "contracts/WavePortal.sol",
  "abi": [
    {
      "anonymous": false,
      "inputs": [
        {
          "indexed": true,
          "internalType": "address",
          "name": "from",
          "type": "address"
        },
        {
          "indexed": false,
          "internalType": "string",
          "name": "message",
          "type": "string"
        },
        {
          "indexed": false,
          "internalType": "uint256",
          "name": "timestamp",
          "type": "uint256"
        }
      ],
      "name": "WaveEvent",
      "type": "event"
    },
    {
      "inputs": [],
      "name": "getAllWaves",
      "outputs": [
        {
          "components": [
            {
              "internalType": "address",
              "name": "fromUser",
              "type": "address"
            },
            {
              "internalType": "string",
              "name": "message",
              "type": "string"
            },
            {
              "internalType": "uint256",
              "name": "timestamp",
              "type": "uint256"
            }
          ],
          "internalType": "struct WavePortal.Wave[]",
          "name": "",
          "type": "tuple[]"
        }
      ],
      "stateMutability": "view",
      "type": "function"
    },
    {
      "inputs": [],
      "name": "getTotalWaveCount",
      "outputs": [
        {
          "internalType": "uint256",
          "name": "",
          "type": "uint256"
        }
      ],
      "stateMutability": "view",
      "type": "function"
    },
    {
      "inputs": [
        {
          "internalType": "string",
          "name": "_message",
          "type": "string"
        }
      ],
      "name": "wave",
      "outputs": [],
      "stateMutability": "nonpayable",
      "type": "function"
    }
  ],
  "bytecode": "0x608060405234801561001057600080fd5b50610a5c806100206000396000f3fe608060405234801561001057600080fd5b50600436106100415760003560e01c80631990ff9314610046578063449d46c014610064578063bd43a90814610080575b600080fd5b61004e61009e565b60405161005b9190610787565b60405180910390f35b61007e6004803603810190610079919061053d565b6100a7565b005b61008861021c565b6040516100959190610705565b60405180910390f35b60008054905090565b6000808154809291906100b99061093f565b91905055506100fd6040518060400160405280600881526020017f25732077617665640000000000000000000000000000000000000000000000008152503361036d565b600160405180606001604052803373ffffffffffffffffffffffffffffffffffffffff16815260200183815260200142815250908060018154018082558091505060019003906000526020600020906003020160009091909190915060008201518160000160006101000a81548173ffffffffffffffffffffffffffffffffffffffff021916908373ffffffffffffffffffffffffffffffffffffffff16021790555060208201518160010190805190602001906101bc929190610432565b506040820151816002015550503373ffffffffffffffffffffffffffffffffffffffff167fd1c45c29e612f3c3b2cf89c0aecf54b64af1b72af01e09dc8f8d5f5e11e938358242604051610211929190610757565b60405180910390a250565b60606001805480602002602001604051908101604052809291908181526020016000905b8282101561036457838290600052602060002090600302016040518060600160405290816000820160009054906101000a900473ffffffffffffffffffffffffffffffffffffffff1673ffffffffffffffffffffffffffffffffffffffff1673ffffffffffffffffffffffffffffffffffffffff1681526020016001820180546102c9906108dc565b80601f01602080910402602001604051908101604052809291908181526020018280546102f5906108dc565b80156103425780601f1061031757610100808354040283529160200191610342565b820191906000526020600020905b81548152906001019060200180831161032557829003601f168201915b5050505050815260200160028201548152505081526020019060010190610240565b50505050905090565b6104058282604051602401610383929190610727565b6040516020818303038152906040527f319af333000000000000000000000000000000000000000000000000000000007bffffffffffffffffffffffffffffffffffffffffffffffffffffffff19166020820180517bffffffffffffffffffffffffffffffffffffffffffffffffffffffff8381831617835250505050610409565b5050565b60008151905060006a636f6e736f6c652e6c6f679050602083016000808483855afa5050505050565b82805461043e906108dc565b90600052602060002090601f01602090048101928261046057600085556104a7565b82601f1061047957805160ff19168380011785556104a7565b828001600101855582156104a7579182015b828111156104a657825182559160200191906001019061048b565b5b5090506104b491906104b8565b5090565b5b808211156104d15760008160009055506001016104b9565b5090565b60006104e86104e3846107c7565b6107a2565b90508281526020810184848401111561050057600080fd5b61050b84828561089a565b509392505050565b600082601f83011261052457600080fd5b81356105348482602086016104d5565b91505092915050565b60006020828403121561054f57600080fd5b600082013567ffffffffffffffff81111561056957600080fd5b61057584828501610513565b91505092915050565b600061058a8383610697565b905092915050565b61059b8161085e565b82525050565b6105aa8161085e565b82525050565b60006105bb82610808565b6105c5818561082b565b9350836020820285016105d7856107f8565b8060005b8581101561061357848403895281516105f4858261057e565b94506105ff8361081e565b925060208a019950506001810190506105db565b50829750879550505050505092915050565b600061063082610813565b61063a818561083c565b935061064a8185602086016108a9565b61065381610a15565b840191505092915050565b600061066982610813565b610673818561084d565b93506106838185602086016108a9565b61068c81610a15565b840191505092915050565b60006060830160008301516106af6000860182610592565b50602083015184820360208601526106c78282610625565b91505060408301516106dc60408601826106e7565b508091505092915050565b6106f081610890565b82525050565b6106ff81610890565b82525050565b6000602082019050818103600083015261071f81846105b0565b905092915050565b60006040820190508181036000830152610741818561065e565b905061075060208301846105a1565b9392505050565b60006040820190508181036000830152610771818561065e565b905061078060208301846106f6565b9392505050565b600060208201905061079c60008301846106f6565b92915050565b60006107ac6107bd565b90506107b8828261090e565b919050565b6000604051905090565b600067ffffffffffffffff8211156107e2576107e16109e6565b5b6107eb82610a15565b9050602081019050919050565b6000819050602082019050919050565b600081519050919050565b600081519050919050565b6000602082019050919050565b600082825260208201905092915050565b600082825260208201905092915050565b600082825260208201905092915050565b600061086982610870565b9050919050565b600073ffffffffffffffffffffffffffffffffffffffff82169050919050565b6000819050919050565b82818337600083830152505050565b60005b838110156108c75780820151818401526020810190506108ac565b838111156108d6576000848401525b50505050565b600060028204905060018216806108f457607f821691505b60208210811415610908576109076109b7565b5b50919050565b61091782610a15565b810181811067ffffffffffffffff82111715610936576109356109e6565b5b80604052505050565b600061094a82610890565b91507fffffffffffffffffffffffffffffffffffffffffffffffffffffffffffffffff82141561097d5761097c610988565b5b600182019050919050565b7f4e487b7100000000000000000000000000000000000000000000000000000000600052601160045260246000fd5b7f4e487b7100000000000000000000000000000000000000000000000000000000600052602260045260246000fd5b7f4e487b7100000000000000000000000000000000000000000000000000000000600052604160045260246000fd5b6000601f19601f830116905091905056fea2646970667358221220ae82270ae17a668d4003f413af0280598d4cb7da318ea4ab84837500427006b164736f6c63430008040033",
  "linkReferences": {},
  "deployedLinkReferences": {}
}