{
  "_format": "hh-sol-artifact-1",
  "contractName": "WavePortal",
  "sourceName": "contracts/WavePortal.sol",
  "abi": [
    {
      "inputs": [],
      "stateMutability": "payable",
      "type": "constructor"
    },
    {
      "anonymous": false,
      "inputs": [
        {
          "indexed": true,
          "internalType": "address",
          "name": "from",
          "type": "address"
        },
        {
          "indexed": false,
          "internalType": "string",
          "name": "message",
          "type": "string"
        },
        {
          "indexed": false,
          "internalType": "uint256",
          "name": "timestamp",
          "type": "uint256"
        }
      ],
      "name": "WaveEvent",
      "type": "event"
    },
    {
      "inputs": [],
      "name": "getAllWaves",
      "outputs": [
        {
          "components": [
            {
              "internalType": "address",
              "name": "fromUser",
              "type": "address"
            },
            {
              "internalType": "string",
              "name": "message",
              "type": "string"
            },
            {
              "internalType": "uint256",
              "name": "timestamp",
              "type": "uint256"
            }
          ],
          "internalType": "struct WavePortal.Wave[]",
          "name": "",
          "type": "tuple[]"
        }
      ],
      "stateMutability": "view",
      "type": "function"
    },
    {
      "inputs": [],
      "name": "getTotalWaveCount",
      "outputs": [
        {
          "internalType": "uint256",
          "name": "",
          "type": "uint256"
        }
      ],
      "stateMutability": "view",
      "type": "function"
    },
    {
      "inputs": [
        {
          "internalType": "string",
          "name": "_message",
          "type": "string"
        }
      ],
      "name": "wave",
      "outputs": [],
      "stateMutability": "nonpayable",
      "type": "function"
    }
  ],
  "bytecode": "0x6080604052610cc2806100136000396000f3fe608060405234801561001057600080fd5b50600436106100415760003560e01c80631990ff9314610046578063449d46c014610064578063bd43a90814610080575b600080fd5b61004e61009e565b60405161005b9190610941565b60405180910390f35b61007e60048036038101906100799190610639565b6100a7565b005b610088610318565b604051610095919061087f565b60405180910390f35b60008054905090565b6000808154809291906100b990610b04565b91905055506100fd6040518060400160405280600881526020017f257320776176656400000000000000000000000000000000000000000000000081525033610469565b600160405180606001604052803373ffffffffffffffffffffffffffffffffffffffff16815260200183815260200142815250908060018154018082558091505060019003906000526020600020906003020160009091909190915060008201518160000160006101000a81548173ffffffffffffffffffffffffffffffffffffffff021916908373ffffffffffffffffffffffffffffffffffffffff16021790555060208201518160010190805190602001906101bc92919061052e565b506040820151816002015550503373ffffffffffffffffffffffffffffffffffffffff167fd1c45c29e612f3c3b2cf89c0aecf54b64af1b72af01e09dc8f8d5f5e11e9383582426040516102119291906108d1565b60405180910390a26000655af3107a4000905047811115610267576040517f08c379a000000000000000000000000000000000000000000000000000000000815260040161025e90610901565b60405180910390fd5b60003373ffffffffffffffffffffffffffffffffffffffff168260405161028d9061086a565b60006040518083038185875af1925050503d80600081146102ca576040519150601f19603f3d011682016040523d82523d6000602084013e6102cf565b606091505b5050905080610313576040517f08c379a000000000000000000000000000000000000000000000000000000000815260040161030a90610921565b60405180910390fd5b505050565b60606001805480602002602001604051908101604052809291908181526020016000905b8282101561046057838290600052602060002090600302016040518060600160405290816000820160009054906101000a900473ffffffffffffffffffffffffffffffffffffffff1673ffffffffffffffffffffffffffffffffffffffff1673ffffffffffffffffffffffffffffffffffffffff1681526020016001820180546103c590610aa1565b80601f01602080910402602001604051908101604052809291908181526020018280546103f190610aa1565b801561043e5780601f106104135761010080835404028352916020019161043e565b820191906000526020600020905b81548152906001019060200180831161042157829003601f168201915b505050505081526020016002820154815250508152602001906001019061033c565b50505050905090565b610501828260405160240161047f9291906108a1565b6040516020818303038152906040527f319af333000000000000000000000000000000000000000000000000000000007bffffffffffffffffffffffffffffffffffffffffffffffffffffffff19166020820180517bffffffffffffffffffffffffffffffffffffffffffffffffffffffff8381831617835250505050610505565b5050565b60008151905060006a636f6e736f6c652e6c6f679050602083016000808483855afa5050505050565b82805461053a90610aa1565b90600052602060002090601f01602090048101928261055c57600085556105a3565b82601f1061057557805160ff19168380011785556105a3565b828001600101855582156105a3579182015b828111156105a2578251825591602001919060010190610587565b5b5090506105b091906105b4565b5090565b5b808211156105cd5760008160009055506001016105b5565b5090565b60006105e46105df84610981565b61095c565b9050828152602081018484840111156105fc57600080fd5b610607848285610a5f565b509392505050565b600082601f83011261062057600080fd5b81356106308482602086016105d1565b91505092915050565b60006020828403121561064b57600080fd5b600082013567ffffffffffffffff81111561066557600080fd5b6106718482850161060f565b91505092915050565b600061068683836107fc565b905092915050565b61069781610a23565b82525050565b6106a681610a23565b82525050565b60006106b7826109c2565b6106c181856109e5565b9350836020820285016106d3856109b2565b8060005b8581101561070f57848403895281516106f0858261067a565b94506106fb836109d8565b925060208a019950506001810190506106d7565b50829750879550505050505092915050565b600061072c826109cd565b6107368185610a01565b9350610746818560208601610a6e565b61074f81610bda565b840191505092915050565b6000610765826109cd565b61076f8185610a12565b935061077f818560208601610a6e565b61078881610bda565b840191505092915050565b60006107a0603283610a12565b91506107ab82610beb565b604082019050919050565b60006107c3602683610a12565b91506107ce82610c3a565b604082019050919050565b60006107e66000836109f6565b91506107f182610c89565b600082019050919050565b6000606083016000830151610814600086018261068e565b506020830151848203602086015261082c8282610721565b9150506040830151610841604086018261084c565b508091505092915050565b61085581610a55565b82525050565b61086481610a55565b82525050565b6000610875826107d9565b9150819050919050565b6000602082019050818103600083015261089981846106ac565b905092915050565b600060408201905081810360008301526108bb818561075a565b90506108ca602083018461069d565b9392505050565b600060408201905081810360008301526108eb818561075a565b90506108fa602083018461085b565b9392505050565b6000602082019050818103600083015261091a81610793565b9050919050565b6000602082019050818103600083015261093a816107b6565b9050919050565b6000602082019050610956600083018461085b565b92915050565b6000610966610977565b90506109728282610ad3565b919050565b6000604051905090565b600067ffffffffffffffff82111561099c5761099b610bab565b5b6109a582610bda565b9050602081019050919050565b6000819050602082019050919050565b600081519050919050565b600081519050919050565b6000602082019050919050565b600082825260208201905092915050565b600081905092915050565b600082825260208201905092915050565b600082825260208201905092915050565b6000610a2e82610a35565b9050919050565b600073ffffffffffffffffffffffffffffffffffffffff82169050919050565b6000819050919050565b82818337600083830152505050565b60005b83811015610a8c578082015181840152602081019050610a71565b83811115610a9b576000848401525b50505050565b60006002820490506001821680610ab957607f821691505b60208210811415610acd57610acc610b7c565b5b50919050565b610adc82610bda565b810181811067ffffffffffffffff82111715610afb57610afa610bab565b5b80604052505050565b6000610b0f82610a55565b91507fffffffffffffffffffffffffffffffffffffffffffffffffffffffffffffffff821415610b4257610b41610b4d565b5b600182019050919050565b7f4e487b7100000000000000000000000000000000000000000000000000000000600052601160045260246000fd5b7f4e487b7100000000000000000000000000000000000000000000000000000000600052602260045260246000fd5b7f4e487b7100000000000000000000000000000000000000000000000000000000600052604160045260246000fd5b6000601f19601f8301169050919050565b7f547279696e6720746f207769746864726177206d6f7265206d6f6e657920746860008201527f616e20746865206163636f756e74206861730000000000000000000000000000602082015250565b7f4661696c656420746f207769746864726177206d6f6e65792066726f6d20636f60008201527f6e74726163740000000000000000000000000000000000000000000000000000602082015250565b5056fea2646970667358221220268a6e0cff2316c939fc2985e8f1412c80a1acad2860dd4551312cb7e1fd959164736f6c63430008040033",
  "linkReferences": {},
  "deployedLinkReferences": {}
}