{
  "_format": "hh-sol-artifact-1",
  "contractName": "WavePortal",
  "sourceName": "contracts/WavePortal.sol",
  "abi": [
    {
      "inputs": [],
      "stateMutability": "payable",
      "type": "constructor"
    },
    {
      "anonymous": false,
      "inputs": [
        {
          "indexed": true,
          "internalType": "address",
          "name": "from",
          "type": "address"
        },
        {
          "indexed": false,
          "internalType": "string",
          "name": "message",
          "type": "string"
        },
        {
          "indexed": false,
          "internalType": "uint256",
          "name": "timestamp",
          "type": "uint256"
        }
      ],
      "name": "WaveEvent",
      "type": "event"
    },
    {
      "inputs": [],
      "name": "getAllWaves",
      "outputs": [
        {
          "components": [
            {
              "internalType": "address",
              "name": "fromUser",
              "type": "address"
            },
            {
              "internalType": "string",
              "name": "message",
              "type": "string"
            },
            {
              "internalType": "uint256",
              "name": "timestamp",
              "type": "uint256"
            }
          ],
          "internalType": "struct WavePortal.Wave[]",
          "name": "",
          "type": "tuple[]"
        }
      ],
      "stateMutability": "view",
      "type": "function"
    },
    {
      "inputs": [],
      "name": "getTotalWaveCount",
      "outputs": [
        {
          "internalType": "uint256",
          "name": "",
          "type": "uint256"
        }
      ],
      "stateMutability": "view",
      "type": "function"
    },
    {
      "inputs": [
        {
          "internalType": "address",
          "name": "",
          "type": "address"
        }
      ],
      "name": "lastWavedAt",
      "outputs": [
        {
          "internalType": "uint256",
          "name": "",
          "type": "uint256"
        }
      ],
      "stateMutability": "view",
      "type": "function"
    },
    {
      "inputs": [
        {
          "internalType": "string",
          "name": "_message",
          "type": "string"
        }
      ],
      "name": "wave",
      "outputs": [],
      "stateMutability": "nonpayable",
      "type": "function"
    }
  ],
  "bytecode": "0x6080604052606444426200001491906200002c565b62000020919062000093565b60028190555062000129565b6000620000398262000089565b9150620000468362000089565b9250827fffffffffffffffffffffffffffffffffffffffffffffffffffffffffffffffff038211156200007e576200007d620000cb565b5b828201905092915050565b6000819050919050565b6000620000a08262000089565b9150620000ad8362000089565b925082620000c057620000bf620000fa565b5b828206905092915050565b7f4e487b7100000000000000000000000000000000000000000000000000000000600052601160045260246000fd5b7f4e487b7100000000000000000000000000000000000000000000000000000000600052601260045260246000fd5b610fd380620001396000396000f3fe608060405234801561001057600080fd5b506004361061004c5760003560e01c80631990ff9314610051578063449d46c01461006f578063a42a46631461008b578063bd43a908146100bb575b600080fd5b6100596100d9565b6040516100669190610b5c565b60405180910390f35b61008960048036038101906100849190610811565b6100e2565b005b6100a560048036038101906100a091906107e8565b61049a565b6040516100b29190610b5c565b60405180910390f35b6100c36104b2565b6040516100d09190610a7a565b60405180910390f35b60008054905090565b42610384600360003373ffffffffffffffffffffffffffffffffffffffff1673ffffffffffffffffffffffffffffffffffffffff168152602001908152602001600020546101309190610c3e565b10610170576040517f08c379a000000000000000000000000000000000000000000000000000000000815260040161016790610b1c565b60405180910390fd5b42600360003373ffffffffffffffffffffffffffffffffffffffff1673ffffffffffffffffffffffffffffffffffffffff168152602001908152602001600020819055506000808154809291906101c690610d75565b919050555061020a6040518060400160405280600881526020017f257320776176656400000000000000000000000000000000000000000000000081525033610603565b600160405180606001604052803373ffffffffffffffffffffffffffffffffffffffff16815260200183815260200142815250908060018154018082558091505060019003906000526020600020906003020160009091909190915060008201518160000160006101000a81548173ffffffffffffffffffffffffffffffffffffffff021916908373ffffffffffffffffffffffffffffffffffffffff16021790555060208201518160010190805190602001906102c99291906106c8565b50604082015181600201555050606460025442446102e79190610c3e565b6102f19190610c3e565b6102fb9190610dbe565b6002819055506032600254116104475761034a6040518060400160405280600781526020017f257320776f6e210000000000000000000000000000000000000000000000000081525033610603565b6000655af3107a4000905047811115610398576040517f08c379a000000000000000000000000000000000000000000000000000000000815260040161038f90610afc565b60405180910390fd5b60003373ffffffffffffffffffffffffffffffffffffffff16826040516103be90610a65565b60006040518083038185875af1925050503d80600081146103fb576040519150601f19603f3d011682016040523d82523d6000602084013e610400565b606091505b5050905080610444576040517f08c379a000000000000000000000000000000000000000000000000000000000815260040161043b90610b3c565b60405180910390fd5b50505b3373ffffffffffffffffffffffffffffffffffffffff167fd1c45c29e612f3c3b2cf89c0aecf54b64af1b72af01e09dc8f8d5f5e11e93835824260405161048f929190610acc565b60405180910390a250565b60036020528060005260406000206000915090505481565b60606001805480602002602001604051908101604052809291908181526020016000905b828210156105fa57838290600052602060002090600302016040518060600160405290816000820160009054906101000a900473ffffffffffffffffffffffffffffffffffffffff1673ffffffffffffffffffffffffffffffffffffffff1673ffffffffffffffffffffffffffffffffffffffff16815260200160018201805461055f90610d12565b80601f016020809104026020016040519081016040528092919081815260200182805461058b90610d12565b80156105d85780601f106105ad576101008083540402835291602001916105d8565b820191906000526020600020905b8154815290600101906020018083116105bb57829003601f168201915b50505050508152602001600282015481525050815260200190600101906104d6565b50505050905090565b61069b8282604051602401610619929190610a9c565b6040516020818303038152906040527f319af333000000000000000000000000000000000000000000000000000000007bffffffffffffffffffffffffffffffffffffffffffffffffffffffff19166020820180517bffffffffffffffffffffffffffffffffffffffffffffffffffffffff838183161783525050505061069f565b5050565b60008151905060006a636f6e736f6c652e6c6f679050602083016000808483855afa5050505050565b8280546106d490610d12565b90600052602060002090601f0160209004810192826106f6576000855561073d565b82601f1061070f57805160ff191683800117855561073d565b8280016001018555821561073d579182015b8281111561073c578251825591602001919060010190610721565b5b50905061074a919061074e565b5090565b5b8082111561076757600081600090555060010161074f565b5090565b600061077e61077984610b9c565b610b77565b90508281526020810184848401111561079657600080fd5b6107a1848285610cd0565b509392505050565b6000813590506107b881610f86565b92915050565b600082601f8301126107cf57600080fd5b81356107df84826020860161076b565b91505092915050565b6000602082840312156107fa57600080fd5b6000610808848285016107a9565b91505092915050565b60006020828403121561082357600080fd5b600082013567ffffffffffffffff81111561083d57600080fd5b610849848285016107be565b91505092915050565b600061085e83836109f7565b905092915050565b61086f81610c94565b82525050565b61087e81610c94565b82525050565b600061088f82610bdd565b6108998185610c00565b9350836020820285016108ab85610bcd565b8060005b858110156108e757848403895281516108c88582610852565b94506108d383610bf3565b925060208a019950506001810190506108af565b50829750879550505050505092915050565b600061090482610be8565b61090e8185610c1c565b935061091e818560208601610cdf565b61092781610eab565b840191505092915050565b600061093d82610be8565b6109478185610c2d565b9350610957818560208601610cdf565b61096081610eab565b840191505092915050565b6000610978603283610c2d565b915061098382610ebc565b604082019050919050565b600061099b601783610c2d565b91506109a682610f0b565b602082019050919050565b60006109be602683610c2d565b91506109c982610f34565b604082019050919050565b60006109e1600083610c11565b91506109ec82610f83565b600082019050919050565b6000606083016000830151610a0f6000860182610866565b5060208301518482036020860152610a2782826108f9565b9150506040830151610a3c6040860182610a47565b508091505092915050565b610a5081610cc6565b82525050565b610a5f81610cc6565b82525050565b6000610a70826109d4565b9150819050919050565b60006020820190508181036000830152610a948184610884565b905092915050565b60006040820190508181036000830152610ab68185610932565b9050610ac56020830184610875565b9392505050565b60006040820190508181036000830152610ae68185610932565b9050610af56020830184610a56565b9392505050565b60006020820190508181036000830152610b158161096b565b9050919050565b60006020820190508181036000830152610b358161098e565b9050919050565b60006020820190508181036000830152610b55816109b1565b9050919050565b6000602082019050610b716000830184610a56565b92915050565b6000610b81610b92565b9050610b8d8282610d44565b919050565b6000604051905090565b600067ffffffffffffffff821115610bb757610bb6610e7c565b5b610bc082610eab565b9050602081019050919050565b6000819050602082019050919050565b600081519050919050565b600081519050919050565b6000602082019050919050565b600082825260208201905092915050565b600081905092915050565b600082825260208201905092915050565b600082825260208201905092915050565b6000610c4982610cc6565b9150610c5483610cc6565b9250827fffffffffffffffffffffffffffffffffffffffffffffffffffffffffffffffff03821115610c8957610c88610def565b5b828201905092915050565b6000610c9f82610ca6565b9050919050565b600073ffffffffffffffffffffffffffffffffffffffff82169050919050565b6000819050919050565b82818337600083830152505050565b60005b83811015610cfd578082015181840152602081019050610ce2565b83811115610d0c576000848401525b50505050565b60006002820490506001821680610d2a57607f821691505b60208210811415610d3e57610d3d610e4d565b5b50919050565b610d4d82610eab565b810181811067ffffffffffffffff82111715610d6c57610d6b610e7c565b5b80604052505050565b6000610d8082610cc6565b91507fffffffffffffffffffffffffffffffffffffffffffffffffffffffffffffffff821415610db357610db2610def565b5b600182019050919050565b6000610dc982610cc6565b9150610dd483610cc6565b925082610de457610de3610e1e565b5b828206905092915050565b7f4e487b7100000000000000000000000000000000000000000000000000000000600052601160045260246000fd5b7f4e487b7100000000000000000000000000000000000000000000000000000000600052601260045260246000fd5b7f4e487b7100000000000000000000000000000000000000000000000000000000600052602260045260246000fd5b7f4e487b7100000000000000000000000000000000000000000000000000000000600052604160045260246000fd5b6000601f19601f8301169050919050565b7f547279696e6720746f207769746864726177206d6f7265206d6f6e657920746860008201527f616e20746865206163636f756e74206861730000000000000000000000000000602082015250565b7f4e65656420746f2077616974203135206d696e75746573000000000000000000600082015250565b7f4661696c656420746f207769746864726177206d6f6e65792066726f6d20636f60008201527f6e74726163740000000000000000000000000000000000000000000000000000602082015250565b50565b610f8f81610c94565b8114610f9a57600080fd5b5056fea26469706673582212200af79969bccaf4e8817f03379311560b84eee882b6a4ae47b7f89ac6e11052ce64736f6c63430008040033",
  "linkReferences": {},
  "deployedLinkReferences": {}
}